{
  "_format": "hh3-artifact-1",
  "contractName": "GoldSignalAgent",
  "sourceName": "contracts/agent/GoldSignalAgent.sol",
  "abi": [
    {
      "inputs": [],
      "stateMutability": "payable",
      "type": "constructor"
    },
    {
      "anonymous": false,
      "inputs": [
        {
          "indexed": true,
          "internalType": "address",
          "name": "agent",
          "type": "address"
        },
        {
          "indexed": true,
          "internalType": "address",
          "name": "owner",
          "type": "address"
        }
      ],
      "name": "AgentSpawned",
      "type": "event"
    },
    {
      "anonymous": false,
      "inputs": [
        {
          "indexed": true,
          "internalType": "uint256",
          "name": "signalId",
          "type": "uint256"
        },
        {
          "indexed": false,
          "internalType": "string",
          "name": "bias",
          "type": "string"
        },
        {
          "indexed": false,
          "internalType": "string",
          "name": "setupGrade",
          "type": "string"
        },
        {
          "indexed": false,
          "internalType": "string",
          "name": "entry",
          "type": "string"
        },
        {
          "indexed": false,
          "internalType": "string",
          "name": "stopLoss",
          "type": "string"
        },
        {
          "indexed": false,
          "internalType": "string",
          "name": "waveCount",
          "type": "string"
        }
      ],
      "name": "SignalGenerated",
      "type": "event"
    },
    {
      "anonymous": false,
      "inputs": [
        {
          "indexed": true,
          "internalType": "uint256",
          "name": "signalId",
          "type": "uint256"
        },
        {
          "indexed": false,
          "internalType": "bytes32",
          "name": "requestId",
          "type": "bytes32"
        },
        {
          "indexed": false,
          "internalType": "string",
          "name": "goldPrice",
          "type": "string"
        }
      ],
      "name": "SignalRequested",
      "type": "event"
    },
    {
      "inputs": [],
      "name": "getLatestSignal",
      "outputs": [
        {
          "components": [
            {
              "internalType": "uint256",
              "name": "timestamp",
              "type": "uint256"
            },
            {
              "internalType": "string",
              "name": "goldPrice",
              "type": "string"
            },
            {
              "internalType": "string",
              "name": "bias",
              "type": "string"
            },
            {
              "internalType": "string",
              "name": "setupGrade",
              "type": "string"
            },
            {
              "internalType": "string",
              "name": "entry",
              "type": "string"
            },
            {
              "internalType": "string",
              "name": "stopLoss",
              "type": "string"
            },
            {
              "internalType": "string",
              "name": "tp1",
              "type": "string"
            },
            {
              "internalType": "string",
              "name": "tp2",
              "type": "string"
            },
            {
              "internalType": "string",
              "name": "tp3",
              "type": "string"
            },
            {
              "internalType": "string",
              "name": "waveCount",
              "type": "string"
            },
            {
              "internalType": "string",
              "name": "rawAnalysis",
              "type": "string"
            },
            {
              "internalType": "bool",
              "name": "fulfilled",
              "type": "bool"
            }
          ],
          "internalType": "struct GoldSignalAgent.Signal",
          "name": "",
          "type": "tuple"
        }
      ],
      "stateMutability": "view",
      "type": "function"
    },
    {
      "inputs": [
        {
          "internalType": "uint256",
          "name": "signalId",
          "type": "uint256"
        }
      ],
      "name": "getSignal",
      "outputs": [
        {
          "components": [
            {
              "internalType": "uint256",
              "name": "timestamp",
              "type": "uint256"
            },
            {
              "internalType": "string",
              "name": "goldPrice",
              "type": "string"
            },
            {
              "internalType": "string",
              "name": "bias",
              "type": "string"
            },
            {
              "internalType": "string",
              "name": "setupGrade",
              "type": "string"
            },
            {
              "internalType": "string",
              "name": "entry",
              "type": "string"
            },
            {
              "internalType": "string",
              "name": "stopLoss",
              "type": "string"
            },
            {
              "internalType": "string",
              "name": "tp1",
              "type": "string"
            },
            {
              "internalType": "string",
              "name": "tp2",
              "type": "string"
            },
            {
              "internalType": "string",
              "name": "tp3",
              "type": "string"
            },
            {
              "internalType": "string",
              "name": "waveCount",
              "type": "string"
            },
            {
              "internalType": "string",
              "name": "rawAnalysis",
              "type": "string"
            },
            {
              "internalType": "bool",
              "name": "fulfilled",
              "type": "bool"
            }
          ],
          "internalType": "struct GoldSignalAgent.Signal",
          "name": "",
          "type": "tuple"
        }
      ],
      "stateMutability": "view",
      "type": "function"
    },
    {
      "inputs": [
        {
          "internalType": "bytes32",
          "name": "requestId",
          "type": "bytes32"
        },
        {
          "internalType": "bytes",
          "name": "result",
          "type": "bytes"
        }
      ],
      "name": "onResult",
      "outputs": [],
      "stateMutability": "nonpayable",
      "type": "function"
    },
    {
      "inputs": [],
      "name": "owner",
      "outputs": [
        {
          "internalType": "address",
          "name": "",
          "type": "address"
        }
      ],
      "stateMutability": "view",
      "type": "function"
    },
    {
      "inputs": [
        {
          "internalType": "string",
          "name": "goldPrice",
          "type": "string"
        }
      ],
      "name": "requestSignal",
      "outputs": [
        {
          "internalType": "uint256",
          "name": "",
          "type": "uint256"
        }
      ],
      "stateMutability": "nonpayable",
      "type": "function"
    },
    {
      "inputs": [
        {
          "internalType": "bytes32",
          "name": "",
          "type": "bytes32"
        }
      ],
      "name": "requestToSignal",
      "outputs": [
        {
          "internalType": "uint256",
          "name": "",
          "type": "uint256"
        }
      ],
      "stateMutability": "view",
      "type": "function"
    },
    {
      "inputs": [],
      "name": "signalCount",
      "outputs": [
        {
          "internalType": "uint256",
          "name": "",
          "type": "uint256"
        }
      ],
      "stateMutability": "view",
      "type": "function"
    },
    {
      "inputs": [
        {
          "internalType": "uint256",
          "name": "",
          "type": "uint256"
        }
      ],
      "name": "signals",
      "outputs": [
        {
          "internalType": "uint256",
          "name": "timestamp",
          "type": "uint256"
        },
        {
          "internalType": "string",
          "name": "goldPrice",
          "type": "string"
        },
        {
          "internalType": "string",
          "name": "bias",
          "type": "string"
        },
        {
          "internalType": "string",
          "name": "setupGrade",
          "type": "string"
        },
        {
          "internalType": "string",
          "name": "entry",
          "type": "string"
        },
        {
          "internalType": "string",
          "name": "stopLoss",
          "type": "string"
        },
        {
          "internalType": "string",
          "name": "tp1",
          "type": "string"
        },
        {
          "internalType": "string",
          "name": "tp2",
          "type": "string"
        },
        {
          "internalType": "string",
          "name": "tp3",
          "type": "string"
        },
        {
          "internalType": "string",
          "name": "waveCount",
          "type": "string"
        },
        {
          "internalType": "string",
          "name": "rawAnalysis",
          "type": "string"
        },
        {
          "internalType": "bool",
          "name": "fulfilled",
          "type": "bool"
        }
      ],
      "stateMutability": "view",
      "type": "function"
    },
    {
      "stateMutability": "payable",
      "type": "receive"
    }
  ],
  "bytecode": "0x60806040525f80546001600160a01b03191633179055341561006f5760405163b6b55f2560e01b815262278d0060048201526108109063b6b55f259034906024015f604051808303818588803b158015610057575f80fd5b505af1158015610069573d5f803e3d5ffd5b50505050505b604051339030907fbdd40d23a45a3004d6ab807de699749f2d1e46907048851cb1a5dcbb419b1b4c905f90a3612517806100a85f395ff3fe60806040526004361061007c575f3560e01c80638233d2cf1161004c5780638233d2cf14610136578063828e58e2146101615780638da5cb5b14610180578063ae0041aa146101b6575f80fd5b80631082ee58146100875780631b50c14f146100b15780633358a80d146100de57806347c740cd146100ff575f80fd5b3661008357005b5f80fd5b348015610092575f80fd5b5061009b6101cb565b6040516100a89190611c27565b60405180910390f35b3480156100bc575f80fd5b506100d06100cb366004611dc3565b610803565b6040519081526020016100a8565b3480156100e9575f80fd5b506100fd6100f8366004611e02565b610b04565b005b34801561010a575f80fd5b5061011e610119366004611e4a565b610dcd565b6040516100a89c9b9a99989796959493929190611e61565b348015610141575f80fd5b506100d0610150366004611e4a565b60036020525f908152604090205481565b34801561016c575f80fd5b5061009b61017b366004611e4a565b611364565b34801561018b575f80fd5b505f5461019e906001600160a01b031681565b6040516001600160a01b0390911681526020016100a8565b3480156101c1575f80fd5b506100d060015481565b6101d3611b79565b5f6001541161021a5760405162461bcd60e51b815260206004820152600e60248201526d139bc81cda59db985b1cc81e595d60921b60448201526064015b60405180910390fd5b60025f6001805461022b9190611f68565b81526020019081526020015f20604051806101800160405290815f820154815260200160018201805461025d90611f7b565b80601f016020809104026020016040519081016040528092919081815260200182805461028990611f7b565b80156102d45780601f106102ab576101008083540402835291602001916102d4565b820191905f5260205f20905b8154815290600101906020018083116102b757829003601f168201915b505050505081526020016002820180546102ed90611f7b565b80601f016020809104026020016040519081016040528092919081815260200182805461031990611f7b565b80156103645780601f1061033b57610100808354040283529160200191610364565b820191905f5260205f20905b81548152906001019060200180831161034757829003601f168201915b5050505050815260200160038201805461037d90611f7b565b80601f01602080910402602001604051908101604052809291908181526020018280546103a990611f7b565b80156103f45780601f106103cb576101008083540402835291602001916103f4565b820191905f5260205f20905b8154815290600101906020018083116103d757829003601f168201915b5050505050815260200160048201805461040d90611f7b565b80601f016020809104026020016040519081016040528092919081815260200182805461043990611f7b565b80156104845780601f1061045b57610100808354040283529160200191610484565b820191905f5260205f20905b81548152906001019060200180831161046757829003601f168201915b5050505050815260200160058201805461049d90611f7b565b80601f01602080910402602001604051908101604052809291908181526020018280546104c990611f7b565b80156105145780601f106104eb57610100808354040283529160200191610514565b820191905f5260205f20905b8154815290600101906020018083116104f757829003601f168201915b5050505050815260200160068201805461052d90611f7b565b80601f016020809104026020016040519081016040528092919081815260200182805461055990611f7b565b80156105a45780601f1061057b576101008083540402835291602001916105a4565b820191905f5260205f20905b81548152906001019060200180831161058757829003601f168201915b505050505081526020016007820180546105bd90611f7b565b80601f01602080910402602001604051908101604052809291908181526020018280546105e990611f7b565b80156106345780601f1061060b57610100808354040283529160200191610634565b820191905f5260205f20905b81548152906001019060200180831161061757829003601f168201915b5050505050815260200160088201805461064d90611f7b565b80601f016020809104026020016040519081016040528092919081815260200182805461067990611f7b565b80156106c45780601f1061069b576101008083540402835291602001916106c4565b820191905f5260205f20905b8154815290600101906020018083116106a757829003601f168201915b505050505081526020016009820180546106dd90611f7b565b80601f016020809104026020016040519081016040528092919081815260200182805461070990611f7b565b80156107545780601f1061072b57610100808354040283529160200191610754565b820191905f5260205f20905b81548152906001019060200180831161073757829003601f168201915b50505050508152602001600a8201805461076d90611f7b565b80601f016020809104026020016040519081016040528092919081815260200182805461079990611f7b565b80156107e45780601f106107bb576101008083540402835291602001916107e4565b820191905f5260205f20905b8154815290600101906020018083116107c757829003601f168201915b5050509183525050600b919091015460ff161515602090910152919050565b600180545f918291908261081683611fb3565b91905055905060405180610180016040528042815260200185858080601f0160208091040260200160405190810160405280939291908181526020018383808284375f920182905250938552505060408051602081810183528482528086019190915281518082018352848152828601528151808201835284815260608601528151808201835284815260808601528151808201835284815260a08601528151808201835284815260c08601528151808201835284815260e0860152815180820183528481526101008601528151808201835284815261012086015261014090940183905285835260028452909120835181559183015160018301915061091d908261202b565b5060408201516002820190610932908261202b565b5060608201516003820190610947908261202b565b506080820151600482019061095c908261202b565b5060a08201516005820190610971908261202b565b5060c08201516006820190610986908261202b565b5060e0820151600782019061099b908261202b565b5061010082015160088201906109b1908261202b565b5061012082015160098201906109c7908261202b565b50610140820151600a8201906109dd908261202b565b506101609190910151600b909101805460ff1916911515919091179055604080516020601f86018190048102820181019092528481525f91610a39919087908790819084018382808284375f9201919091525061194992505050565b604051633cacdcb760e01b81529091505f9061080290633cacdcb790610a67908590610200906004016120eb565b6020604051808303815f875af1158015610a83573d5f803e3d5ffd5b505050506040513d601f19601f82011682018060405250810190610aa7919061212f565b5f81815260036020526040908190208590555190915083907f292bb38e52bc8be56c076e50f629ab4edb82cc418f6171c74ec035ce9413331e90610af09084908a908a90612146565b60405180910390a250909150505b92915050565b5f838152600360209081526040808320548084526002909252909120600b81015460ff1615610b695760405162461bcd60e51b8152602060048201526011602482015270105b1c9958591e48199d5b199a5b1b1959607a1b6044820152606401610211565b5f84848080601f0160208091040260200160405190810160405280939291908181526020018383808284375f920191909152509293505050600a83019050610bb1828261202b565b50600b8201805460ff1916600117905560408051808201909152600681526523a920a2229d60d11b6020820152610be9908290611972565b6003830190610bf8908261202b565b50610c2081604051806040016040528060058152602001642124a0a99d60d91b815250611972565b6002830190610c2f908261202b565b50610c5781604051806040016040528060058152602001642ba0ab229d60d91b815250611972565b6009830190610c66908261202b565b50610c8f816040518060400160405280600681526020016522a72a292c9d60d11b815250611972565b6004830190610c9e908261202b565b50610cc4816040518060400160405280600381526020016229a61d60e91b815250611972565b6005830190610cd3908261202b565b50610cfa81604051806040016040528060048152602001632a28189d60e11b815250611972565b6006830190610d09908261202b565b50610d3081604051806040016040528060048152602001632a28191d60e11b815250611972565b6007830190610d3f908261202b565b50610d6681604051806040016040528060048152602001632a28199d60e11b815250611972565b6008830190610d75908261202b565b50827fef95c369e01e4f50c395f10998508660ae8d992a92bbc6799c3cbb6f7a42cac88360020184600301856004018660050187600901604051610dbd9594939291906121f4565b60405180910390a2505050505050565b60026020525f908152604090208054600182018054919291610dee90611f7b565b80601f0160208091040260200160405190810160405280929190818152602001828054610e1a90611f7b565b8015610e655780601f10610e3c57610100808354040283529160200191610e65565b820191905f5260205f20905b815481529060010190602001808311610e4857829003601f168201915b505050505090806002018054610e7a90611f7b565b80601f0160208091040260200160405190810160405280929190818152602001828054610ea690611f7b565b8015610ef15780601f10610ec857610100808354040283529160200191610ef1565b820191905f5260205f20905b815481529060010190602001808311610ed457829003601f168201915b505050505090806003018054610f0690611f7b565b80601f0160208091040260200160405190810160405280929190818152602001828054610f3290611f7b565b8015610f7d5780601f10610f5457610100808354040283529160200191610f7d565b820191905f5260205f20905b815481529060010190602001808311610f6057829003601f168201915b505050505090806004018054610f9290611f7b565b80601f0160208091040260200160405190810160405280929190818152602001828054610fbe90611f7b565b80156110095780601f10610fe057610100808354040283529160200191611009565b820191905f5260205f20905b815481529060010190602001808311610fec57829003601f168201915b50505050509080600501805461101e90611f7b565b80601f016020809104026020016040519081016040528092919081815260200182805461104a90611f7b565b80156110955780601f1061106c57610100808354040283529160200191611095565b820191905f5260205f20905b81548152906001019060200180831161107857829003601f168201915b5050505050908060060180546110aa90611f7b565b80601f01602080910402602001604051908101604052809291908181526020018280546110d690611f7b565b80156111215780601f106110f857610100808354040283529160200191611121565b820191905f5260205f20905b81548152906001019060200180831161110457829003601f168201915b50505050509080600701805461113690611f7b565b80601f016020809104026020016040519081016040528092919081815260200182805461116290611f7b565b80156111ad5780601f10611184576101008083540402835291602001916111ad565b820191905f5260205f20905b81548152906001019060200180831161119057829003601f168201915b5050505050908060080180546111c290611f7b565b80601f01602080910402602001604051908101604052809291908181526020018280546111ee90611f7b565b80156112395780601f1061121057610100808354040283529160200191611239565b820191905f5260205f20905b81548152906001019060200180831161121c57829003601f168201915b50505050509080600901805461124e90611f7b565b80601f016020809104026020016040519081016040528092919081815260200182805461127a90611f7b565b80156112c55780601f1061129c576101008083540402835291602001916112c5565b820191905f5260205f20905b8154815290600101906020018083116112a857829003601f168201915b50505050509080600a0180546112da90611f7b565b80601f016020809104026020016040519081016040528092919081815260200182805461130690611f7b565b80156113515780601f1061132857610100808354040283529160200191611351565b820191905f5260205f20905b81548152906001019060200180831161133457829003601f168201915b505050600b909301549192505060ff168c565b61136c611b79565b60025f8381526020019081526020015f20604051806101800160405290815f82015481526020016001820180546113a290611f7b565b80601f01602080910402602001604051908101604052809291908181526020018280546113ce90611f7b565b80156114195780601f106113f057610100808354040283529160200191611419565b820191905f5260205f20905b8154815290600101906020018083116113fc57829003601f168201915b5050505050815260200160028201805461143290611f7b565b80601f016020809104026020016040519081016040528092919081815260200182805461145e90611f7b565b80156114a95780601f10611480576101008083540402835291602001916114a9565b820191905f5260205f20905b81548152906001019060200180831161148c57829003601f168201915b505050505081526020016003820180546114c290611f7b565b80601f01602080910402602001604051908101604052809291908181526020018280546114ee90611f7b565b80156115395780601f1061151057610100808354040283529160200191611539565b820191905f5260205f20905b81548152906001019060200180831161151c57829003601f168201915b5050505050815260200160048201805461155290611f7b565b80601f016020809104026020016040519081016040528092919081815260200182805461157e90611f7b565b80156115c95780601f106115a0576101008083540402835291602001916115c9565b820191905f5260205f20905b8154815290600101906020018083116115ac57829003601f168201915b505050505081526020016005820180546115e290611f7b565b80601f016020809104026020016040519081016040528092919081815260200182805461160e90611f7b565b80156116595780601f1061163057610100808354040283529160200191611659565b820191905f5260205f20905b81548152906001019060200180831161163c57829003601f168201915b5050505050815260200160068201805461167290611f7b565b80601f016020809104026020016040519081016040528092919081815260200182805461169e90611f7b565b80156116e95780601f106116c0576101008083540402835291602001916116e9565b820191905f5260205f20905b8154815290600101906020018083116116cc57829003601f168201915b5050505050815260200160078201805461170290611f7b565b80601f016020809104026020016040519081016040528092919081815260200182805461172e90611f7b565b80156117795780601f1061175057610100808354040283529160200191611779565b820191905f5260205f20905b81548152906001019060200180831161175c57829003601f168201915b5050505050815260200160088201805461179290611f7b565b80601f01602080910402602001604051908101604052809291908181526020018280546117be90611f7b565b80156118095780601f106117e057610100808354040283529160200191611809565b820191905f5260205f20905b8154815290600101906020018083116117ec57829003601f168201915b5050505050815260200160098201805461182290611f7b565b80601f016020809104026020016040519081016040528092919081815260200182805461184e90611f7b565b80156118995780601f1061187057610100808354040283529160200191611899565b820191905f5260205f20905b81548152906001019060200180831161187c57829003601f168201915b50505050508152602001600a820180546118b290611f7b565b80601f01602080910402602001604051908101604052809291908181526020018280546118de90611f7b565b80156119295780601f1061190057610100808354040283529160200191611929565b820191905f5260205f20905b81548152906001019060200180831161190c57829003601f168201915b5050509183525050600b919091015460ff16151560209091015292915050565b60608160405160200161195c9190612260565b6040516020818303038152906040529050919050565b606082825f5b815183516119869190611f68565b811015611b615760015f5b83518110156119fa578381815181106119ac576119ac6124ba565b01602001516001600160f81b031916856119c683866124ce565b815181106119d6576119d66124ba565b01602001516001600160f81b031916146119f2575f91506119fa565b600101611991565b508015611b58575f835183611a0f91906124ce565b9050805b855181108015611a485750858181518110611a3057611a306124ba565b6020910101516001600160f81b031916601f60fa1b14155b8015611a795750858181518110611a6157611a616124ba565b6020910101516001600160f81b031916600560f91b14155b15611a905780611a8881611fb3565b915050611a13565b5f611a9b8383611f68565b67ffffffffffffffff811115611ab357611ab3611fcb565b6040519080825280601f01601f191660200182016040528015611add576020820181803683370190505b5090505f5b611aec8484611f68565b811015611b495787611afe82866124ce565b81518110611b0e57611b0e6124ba565b602001015160f81c60f81b828281518110611b2b57611b2b6124ba565b60200101906001600160f81b03191690815f1a905350600101611ae2565b509650610afe95505050505050565b50600101611978565b505060408051602081019091525f8152949350505050565b6040518061018001604052805f8152602001606081526020016060815260200160608152602001606081526020016060815260200160608152602001606081526020016060815260200160608152602001606081526020015f151581525090565b5f5b83811015611bf4578181015183820152602001611bdc565b50505f910152565b5f8151808452611c13816020860160208601611bda565b601f01601f19169290920160200192915050565b60208152815160208201525f6020830151610180806040850152611c4f6101a0850183611bfc565b91506040850151601f1980868503016060870152611c6d8483611bfc565b93506060870151915080868503016080870152611c8a8483611bfc565b935060808701519150808685030160a0870152611ca78483611bfc565b935060a08701519150808685030160c0870152611cc48483611bfc565b935060c08701519150808685030160e0870152611ce18483611bfc565b935060e08701519150610100818786030181880152611d008584611bfc565b945080880151925050610120818786030181880152611d1f8584611bfc565b945080880151925050610140818786030181880152611d3e8584611bfc565b945080880151925050610160818786030181880152611d5d8584611bfc565b94508088015192505050611d748286018215159052565b5090949350505050565b5f8083601f840112611d8e575f80fd5b50813567ffffffffffffffff811115611da5575f80fd5b602083019150836020828501011115611dbc575f80fd5b9250929050565b5f8060208385031215611dd4575f80fd5b823567ffffffffffffffff811115611dea575f80fd5b611df685828601611d7e565b90969095509350505050565b5f805f60408486031215611e14575f80fd5b83359250602084013567ffffffffffffffff811115611e31575f80fd5b611e3d86828701611d7e565b9497909650939450505050565b5f60208284031215611e5a575f80fd5b5035919050565b5f6101808e8352806020840152611e7a8184018f611bfc565b90508281036040840152611e8e818e611bfc565b90508281036060840152611ea2818d611bfc565b90508281036080840152611eb6818c611bfc565b905082810360a0840152611eca818b611bfc565b905082810360c0840152611ede818a611bfc565b905082810360e0840152611ef28189611bfc565b9050828103610100840152611f078188611bfc565b9050828103610120840152611f1c8187611bfc565b9050828103610140840152611f318186611bfc565b915050611f4361016083018415159052565b9d9c50505050505050505050505050565b634e487b7160e01b5f52601160045260245ffd5b81810381811115610afe57610afe611f54565b600181811c90821680611f8f57607f821691505b602082108103611fad57634e487b7160e01b5f52602260045260245ffd5b50919050565b5f60018201611fc457611fc4611f54565b5060010190565b634e487b7160e01b5f52604160045260245ffd5b601f82111561202657805f5260205f20601f840160051c810160208510156120045750805b601f840160051c820191505b81811015612023575f8155600101612010565b50505b505050565b815167ffffffffffffffff81111561204557612045611fcb565b612059816120538454611f7b565b84611fdf565b602080601f83116001811461208c575f84156120755750858301515b5f19600386901b1c1916600185901b1785556120e3565b5f85815260208120601f198616915b828110156120ba5788860151825594840194600190910190840161209b565b50858210156120d757878501515f19600388901b60f8161c191681555b505060018460011b0185555b505050505050565b60608152600c60608201526b363630b6b096999718969c3160a11b608082015260a060208201525f61212060a0830185611bfc565b90508260408301529392505050565b5f6020828403121561213f575f80fd5b5051919050565b83815260406020820152816040820152818360608301375f818301606090810191909152601f909201601f1916010192915050565b5f815461218781611f7b565b8085526020600183811680156121a457600181146121be576121e9565b60ff1985168884015283151560051b8801830195506121e9565b865f52825f205f5b858110156121e15781548a82018601529083019084016121c6565b890184019650505b505050505092915050565b60a081525f61220660a083018861217b565b8281036020840152612218818861217b565b9050828103604084015261222c818761217b565b90508281036060840152612240818661217b565b90508281036080840152612254818561217b565b98975050505050505050565b7f596f752061726520616e20456c6c696f74742057617665202b20534d4320657881527f7065727420616e616c797a696e67205841552f5553442e20000000000000000060208201527410dd5c9c995b9d0819dbdb19081c1c9a58d94e8809605a1b60388201525f82516122db81604d850160208701611bda565b61017160f51b604d918401918201527f4170706c792073747269637420456c6c696f747420576176652072756c65733a604f8201527f206d6f746976652077617665732028312c332c35292073756264697669646520606f82015267034b73a37901a96160c51b608f8201527f636f72726563746976652077617665732028322c34292073756264697669646560978201527f20696e746f20332e20576176652032206e65766572207265747261636573206260b782015273032bcb7b732103bb0bb3290189039ba30b93a17160651b60d78201526124b261244e61241b60eb84017f576176652033206973206e65766572207468652073686f72746573742e20576181527f76652034206e65766572206f7665726c6170732077617665203120746572726960208201526503a37b93c97160d51b604082015260460190565b7f5265706c7920696e207468697320657861637420666f726d6174206f6e6c793a8152600160fd1b602082015260210190565b7f47524144453a417c424941533a42756c6c6973687c574156453a336f66357c4581527f4e5452593a323635307c534c3a323632307c5450313a323730307c5450323a3260208201526b03735307c5450333a323830360a41b6040820152604c0190565b949350505050565b634e487b7160e01b5f52603260045260245ffd5b80820180821115610afe57610afe611f5456fea26469706673582212201744dae8c34cfbc6289a67a49aafc2fd3666eb84b85f9213cc040cceafbb5f1b64736f6c63430008180033",
  "linkReferences": {},
  "deployedLinkReferences": {},
  "immutableReferences": {},
  "inputSourceName": "project/contracts/agent/GoldSignalAgent.sol",
  "buildInfoId": "solc-0_8_24-107a7e1d075cfb01584bb4411f98eacabf86d20b"
}